:100000000C9436000C945E000C945E000C945E0020
:100010000C945E000C945E000C945E000C945E00E8
:100020000C945E000C945E000C945E000C945E00D8
:100030000C945E000C945E000C945E000C945E00C8
:100040000C946A020C945E000C94DA020C94B402D4
:100050000C945E000C945E000C945E000C945E00A8
:100060000C945E000C945E000C038F0411241FBEE0
:10007000CFEFD8E0DEBFCDBF22E0AAE2B1E001C001
:100080001D92A432B207E1F711E0A0E0B1E0EAE688
:10009000FEE002C005900D92AA32B107D9F710E038
:1000A000C5E3D0E004C02197FE010E941605C433C9
:1000B000D107C9F70E9450030C9428070C94000044
:1000C000CF92DF92EF92FF920F931F93CF93DF9324
:1000D0006C017A018B01C0E0D0E0CE15DF0589F01C
:1000E000D8016D918D01D601ED91FC910190F081C7
:1000F000E02DC6010995892B11F47E0102C02196DD
:10010000ECCFC701DF91CF911F910F91FF90EF903E
:10011000DF90CF900895089580E090E00895FC016D
:10012000538D448D252F30E0842F90E0821B930B5C
:10013000541710F0CF96089501970895FC01918D02
:10014000828D981761F0828DDF01A80FB11D5D9639
:100150008C91928D9F5F9F73928F90E008958FEFA7
:100160009FEF0895FC01918D828D981731F0828D5B
:10017000E80FF11D858D90E008958FEF9FEF0895B2
:10018000FC01918D228D892F90E0805C9F4F821B16
:1001900091098F739927089583E391E00E94C0002D
:1001A00021E0892B09F420E0822F0895FC01848D41
:1001B000DF01A80FB11DA35ABF4F2C91848D90E091
:1001C00001968F739927848FA689B7892C93A0896C
:1001D000B1898C9180648C93938D848D981306C023
:1001E0000288F389E02D80818F7D80830895EF92CE
:1001F000FF920F931F93CF93DF93EC0181E0888FE1
:100200009B8D8C8D981305C0E889F989808185FDC7
:1002100024C0F62E0B8D10E00F5F1F4F0F731127B8
:10022000E02E8C8DE8120CC00FB607FCFACFE889DF
:10023000F989808185FFF5CFCE010E94D600F1CFEC
:100240008B8DFE01E80FF11DE35AFF4FF0820B8FFB
:10025000EA89FB898081806207C0EE89FF8960831B
:10026000E889F98980818064808381E090E0DF9172
:10027000CF911F910F91FF90EF900895CF93DF934F
:10028000EC01888D8823C9F0EA89FB89808185FD8E
:1002900005C0A889B9898C9186FD0FC00FB607FCEF
:1002A000F5CF808185FFF2CFA889B9898C9185FF30
:1002B000EDCFCE010E94D600E7CFDF91CF91089518
:1002C00080E090E0892B29F00E94CC0081110C94F1
:1002D00000000895009769F0FC0101900020E9F703
:1002E0003197AF01481B590BBC0183E391E00C949B
:1002F000600080E090E00895CF93DF93FC0144819B
:1003000055816081718183E391E00E946000EC017E
:1003100088E191E00E946A018C0F9D1FDF91CF91CF
:1003200008958F929F92AF92BF92CF92DF92EF92F9
:10033000FF920F931F93CF93DF93CDB7DEB7A197B3
:100340000FB6F894DEBF0FBECDBF6C01990FEE085B
:10035000FF08F7FE31C0E0913301F09134010190C4
:10036000F081E02D6DE283E391E009958C01222775
:100370003327A9012C193D094E095F0919A2CE01A5
:1003800081967C019AE0892E912CA12CB12CCA0176
:10039000B901A50194010E94F404605DF701629324
:1003A0007F01211531054105510589F7CF010E94D3
:1003B0006A01080F191F1EC0A701960119A28E011C
:1003C0000F5D1F4F8AE0C82ED12CE12CF12CCA0101
:1003D000B901A70196010E94F404605DF8016293DF
:1003E0008F01211531054105510589F7CF010E9483
:1003F0006A018C0188E191E00E946A01800F911FDF
:10040000A1960FB6F894DEBF0FBECDBFDF91CF919E
:100410001F910F91FF90EF90DF90CF90BF90AF9022
:100420009F908F9008950E941307EF92FF920F9371
:100430001F93CF93DF93EC017B018A01888199811F
:10044000009729F02A813B8124173507F8F4B80179
:100450006F5F7F4F0E944906009759F09983888308
:100460001B830A832C813D81232B81F4FC011082A4
:100470000DC088819981009711F00E94B105198201
:1004800018821D821C821B821A8207C01D830C8366
:10049000B701888199810E942107CE01DF91CF9118
:1004A0001F910F91FF90EF900895FC01118210822F
:1004B00013821282158214826115710551F0FB01BD
:1004C00001900020E9F73197AF01461B570B0C94C0
:1004D000150208951F920F920FB60F9211242F93B9
:1004E0003F938F939F93AF93BF9380912F019091F0
:1004F0003001A0913101B091320130912E0123E001
:10050000230F2D3720F40196A11DB11D05C026E84B
:10051000230F0296A11DB11D20932E0180932F0160
:1005200090933001A0933101B093320180912A0160
:1005300090912B01A0912C01B0912D010196A11D4C
:10054000B11D80932A0190932B01A0932C01B093AD
:100550002D01BF91AF919F918F913F912F910F905E
:100560000FBE0F901F9018951F920F920FB60F920B
:1005700011242F933F934F935F936F937F938F93A8
:100580009F93AF93BF93EF93FF9383E391E00E9418
:10059000D600FF91EF91BF91AF919F918F917F9185
:1005A0006F915F914F913F912F910F900FBE0F90E0
:1005B0001F9018951F920F920FB60F9211242F9330
:1005C0008F939F93EF93FF93E0914301F091440148
:1005D0008081E0914901F0914A0182FD12C0908131
:1005E00080914C018F5F8F7320914D01821751F0E4
:1005F000E0914C01F0E0ED5CFE4F958F80934C0153
:1006000001C08081FF91EF919F918F912F910F9069
:100610000FBE0F901F901895E3E3F1E01382128252
:1006200088EE93E0A0E0B0E084839583A683B7834F
:100630008AE091E09183808385EC90E095878487C0
:1006400084EC90E09787868780EC90E0918B808B9C
:1006500081EC90E0938B828B82EC90E0958B848B85
:1006600086EC90E0978B868B118E128E138E148EF3
:100670006AE171E084E192E00E9455026AE171E072
:100680008AE192E00E9455026AE171E08CEE91E00D
:100690000E9455026AE171E082EF91E00C945502EC
:1006A000789484B5826084BD84B5816084BD85B54D
:1006B000826085BD85B5816085BD80916E00816059
:1006C00080936E00109281008091810082608093FF
:1006D0008100809181008160809381008091800001
:1006E0008160809380008091B10084608093B1002C
:1006F0008091B00081608093B00080917A00846026
:1007000080937A0080917A00826080937A00809151
:100710007A00816080937A0080917A00806880936B
:100720007A001092C100E0914301F091440182E00F
:100730008083E0913F01F09140011082E0914101FE
:10074000F09142018FEC808310924B01E0914701C0
:10075000F091480186E08083E0914501F0914601E7
:10076000808180618083E0914501F0914601808124
:1007700088608083E0914501F09146018081806826
:100780008083E0914501F091460180818F7D8083D7
:1007900080EC90E09093FB018093FA0188EA90E06E
:1007A0009093FD018093FC0188E090E09093FF011D
:1007B0008093FE0181E090E090930102809300021B
:1007C00085E090E090930502809304028CE390E032
:1007D00090930702809306028AE090E090930902CA
:1007E0008093080284EB90E090930B0280930A02BE
:1007F0008EE190E090930D0280930C028CE291E0E8
:1008000090930F0280930E0282E390E09093110286
:100810008093100280EA95E0909313028093120275
:1008200045E050E06BE171E084E192E00E94150246
:1008300048E050E061E271E08AE192E00E94150236
:1008400008EF11E0C0E0D0E0F80161918F01CE0126
:100850000E94AF042196C832D105B1F700ED11E036
:10086000C0E0D0E0CE010E94A704F80181938F017F
:100870002196C832D105B1F78091D2019091D30170
:100880000E9491018091D4019091D5010E94910123
:100890008091D6019091D7010E9491018091D80159
:1008A0009091D9010E9491018091DC019091DD012C
:1008B0000E9491018091DE019091DF010E949101DF
:1008C0008091E0019091E1010E9491018091E2010B
:1008D0009091E3010E9491018091E4019091E501E2
:1008E0000E9491018091E6019091E7010E9491019F
:1008F0008091E8019091E9010E9491018091EA01C3
:100900009091EB010E9491018CEE91E00E947C019C
:1009100082EF91E00E947C010E946001FDCFCF93A5
:10092000DF93C0EDD1E08AA19BA10E94B1058C8D1F
:100930009D8D0E94B105C8EFD1E08AA19BA10E94C4
:10094000B1058C8D9D8DDF91CF910C94B105F999F6
:10095000FECF92BD81BDF89A992780B50895262FC4
:10096000F999FECF1FBA92BD81BD20BD0FB6F89494
:10097000FA9AF99A0FBE019608952F923F924F92DC
:100980005F926F927F928F929F92AF92BF92CF921F
:10099000DF92EF92FF920F931F93CF93DF93CDB728
:1009A000DEB7CA1BDB0B0FB6F894DEBF0FBECDBFA0
:1009B00009942A88398848885F846E847D848C8471
:1009C0009B84AA84B984C884DF80EE80FD800C817A
:1009D0001B81AA81B981CE0FD11D0FB6F894DEBF5D
:1009E0000FBECDBFED010895A1E21A2EAA1BBB1BBD
:1009F000FD010DC0AA1FBB1FEE1FFF1FA217B307EB
:100A0000E407F50720F0A21BB30BE40BF50B661F00
:100A1000771F881F991F1A9469F7609570958095C4
:100A200090959B01AC01BD01CF010895EE0FFF1F12
:100A30000590F491E02D0994CF93DF9382309105D6
:100A400010F482E090E0E0912202F091230220E095
:100A500030E0C0E0D0E0309711F14081518148177B
:100A60005907C0F04817590761F482819381209794
:100A700019F09B838A832BC09093230280932202D8
:100A800026C02115310519F04217530718F49A01B1
:100A9000BE01DF01EF010280F381E02DDCCF2115E3
:100AA000310509F1281B390B2430310590F41296D9
:100AB0008D919C9113976115710521F0FB01938332
:100AC000828304C09093230280932202FD01329618
:100AD00044C0FD01E20FF31F81939193225031092D
:100AE0002D933C933AC02091200230912102232B78
:100AF00041F42091020130910301309321022093AF
:100B0000200220910001309101012115310541F4AD
:100B10002DB73EB74091040150910501241B350BC0
:100B2000E0912002F0912102E217F307A0F42E1BBE
:100B30003F0B2817390778F0AC014E5F5F4F241741
:100B4000350748F04E0F5F1F50932102409320025B
:100B50008193919302C0E0E0F0E0CF01DF91CF916B
:100B600008950F931F93CF93DF93009709F48CC0E0
:100B7000FC0132971382128200912202109123020B
:100B80000115110581F420813181820F931F20917D
:100B90002002309121022817390779F5F0932102BC
:100BA000E093200271C0D80140E050E0AE17BF07CB
:100BB00050F412962D913C911397AD0121153105FA
:100BC00009F1D901F3CF9D01DA01338322836081DA
:100BD0007181860F971F8217930769F4EC012881B2
:100BE0003981260F371F2E5F3F4F318320838A8143
:100BF0009B8193838283452B29F4F0932302E09316
:100C0000220242C01396FC93EE931297ED01499194
:100C100059919E01240F351FE217F30771F480816B
:100C20009181840F951F029611969C938E938281D9
:100C3000938113969C938E931297E0E0F0E0D80195
:100C400012968D919C911397009719F0F8018C01E1
:100C5000F6CF8D919C9198012E5F3F4F820F931F8D
:100C600020912002309121022817390769F430972A
:100C700029F4109223021092220202C013821282DF
:100C80001093210200932002DF91CF911F910F91C9
:100C90000895A0E0B0E0EFE4F6E00C94C104EC01AC
:100CA000009721F4CB010E941C05B8C0FC01E60F9F
:100CB000F71F9C0122503109E217F30708F4ACC07A
:100CC000D9010D911C91119706171707B0F0053047
:100CD000110508F49FC0C80104978617970708F408
:100CE00099C002501109061B170B019311936D93C4
:100CF0007C93CF010E94B1058DC05B01A01AB10A9F
:100D00004C01800E911EA0912202B091230240E07E
:100D100050E0E12CF12C109709F44AC0A815B90550
:100D2000D1F56D907C901197630182E0C80ED11CC3
:100D3000CA14DB0480F1A3014A195B096A0182E04D
:100D4000C80ED11C1296BC9012971396AC91B5E0C8
:100D5000CB16D10440F0B282A38351834083D901E2
:100D60006D937C930AC00E5F1F4FC301800F911FCC
:100D7000F90191838083EB2DFA2FE114F10431F016
:100D8000D7011396FC93EE93129744C0F09323027D
:100D9000E09322023FC08D919C911197481759070B
:100DA00008F4AC017D0112960D90BC91A02DB3CF3B
:100DB000809120029091210288159905E1F446174F
:100DC0005707C8F48091000190910101009741F408
:100DD0008DB79EB74091040150910501841B950B7E
:100DE000E817F907C8F4F0932102E0932002F90113
:100DF000718360830FC0CB010E941C057C010097AA
:100E000059F0A801BE010E941807CE010E94B10549
:100E1000C70104C0CE0102C080E090E0CDB7DEB7CC
:100E2000EEE00C94DD0481E090E0F8940C94280747
:100E3000FB01DC0102C001900D9241505040D8F7F7
:100E40000895FB01DC0101900D920020E1F7089567
:100E500010E0C5E3D0E004C0FE010E941605219613
:0A0E6000C633D107C9F7F894FFCF9D
:100E6A0000002402800000000000F70060008F00EC
:100E7A003E01C0009E00B2000D0A0061646D696EF9
:0A0E8A000070617373776F726400EB
:00000001FF
